:100000000C94AC000C94D4000C94D4000C946C0FA1
:100010000C94900F0C94B40F0C94D4000C94431CCB
:100020000C94D4000C94D4000C94D4000C94980B31
:100030000C94D4000C94D4000C94D4000C94D400F0
:100040000C9474130C94D4000C94C6180C940219DC
:100050000C94D4000C94D4000C94D4000C94D400D0
:100060000C94D4000C94D40000C2010001001100D3
:1000700011000C0000E100000A002500250021000D
:10008000009600001900390039003600127A00008D
:100090001F004600460044008070000022004D0012
:1000A0004D004A00004B00003600750075007200DC
:1000B000403800004A009C009C0099008025000008
:1000C0007200EC00EC00E900C0120000E900DA0167
:1000D000DA01D70160090000D701B603B603B30304
:1000E000B0040000B3036E076E076B072C0100001D
:1000F000DC0EC11DC11DBE1D000000070002010075
:1001000000030406000000000000000001020408D3
:100110001020408001020408102001020408102071
:10012000040404040404040402020202020203039D
:100130000303030300000000230026002900000041
:100140000000250028002B000000000024002700EC
:100150002A000200890BBF1911241FBECFEFD8E07F
:10016000DEBFCDBF11E0A0E0B1E0EAE5F2E402C0FD
:1001700005900D92A038B107D9F712E0A0E8B1E0E0
:1001800001C01D92AD3DB107E1F711E0C8E5D1E036
:1001900004C02297FE010E945C1EC435D107C9F736
:1001A0000E9485160C942B210C940000CF93DF93B2
:1001B000CDB7DEB72A970FB6F894DEBF0FBECDBF1E
:1001C00020E030E04AE050E0BE016F5F7F4F0E94C8
:1001D0007D17CE0101960E945F202A960FB6F894F3
:1001E000DEBF0FBECDBFDF91CF9108957F928F927A
:1001F0009F92AF92BF92CF92DF92EF92FF920F93B6
:100200001F93CF93DF93CDB7DEB72E970FB6F89439
:10021000DEBF0FBECDBF7C015B01822E6E0188E088
:10022000C80ED11CBA01C6010E9437178701E12C04
:10023000F12C7C2C9D2C32C0682D872D992D0E948D
:10024000C5176C019C0140E050E0672D792DCE016F
:1002500001960E94C917BE016F5F7F4FC8010E94BF
:100260002017CE0101960E949216A6014F5F5F4FA4
:10027000672D792DCE0101960E940E18BE016F5F89
:100280007F4F872D992D0E942017CE0101960E9445
:1002900092168FEFE81AF80A095F1F4FEA14FB0461
:1002A0005CF2872D992D0E9492162E960FB6F89427
:1002B000DEBF0FBECDBFDF91CF911F910F91FF9099
:1002C000EF90DF90CF90BF90AF909F908F907F90F6
:1002D000089568E071E08DE192E00C946215AF92B0
:1002E000BF92CF92DF92EF92FF920F931F93CF9323
:1002F000DF93CDB7DEB727970FB6F894DEBF0FBEFA
:10030000CDBFBC01CE0101960E943717CE010196E8
:100310000E94D6008C01CE0101960E949216F8012F
:10032000E05EFE4F849190E0880F991FFC01E25C33
:10033000FE4F459154916A01FC01E85BFE4F4591E7
:1003400054917A01F801E45FFE4FB4908C5C9E4FAB
:10035000FC01859194918C01F6018081AB2CA094D5
:100360008A218083FA0180818B29808361E070E09B
:1003700080E090E00E94FA13F70180818A21808357
:10038000F60180818B298083F80180818B2109F01F
:1003900033C080818B2109F031C080818B2181F5B0
:1003A00080818B2179F580818B2171F580818B2172
:1003B00069F580818B2161F580818B2159F58081E0
:1003C0008B2151F580818B2149F580818B2141F56D
:1003D00080818B2139F580818B2131F580818B21C2
:1003E00029F580818B2121F580818B2119F5808170
:1003F0008B2111F160E121C060E01FC061E01DC0F0
:1004000062E01BC063E019C064E017C065E015C07E
:1004100066E013C067E011C068E00FC069E00DC07E
:100420006AE00BC06BE009C06CE007C06DE005C07E
:100430006EE003C06FE001C061E1F60180818A21B6
:100440008083F70180818B2980834AE050E08DE131
:1004500092E00E94F31527960FB6F894DEBF0FBE08
:10046000CDBFDF91CF911F910F91FF90EF90DF9063
:10047000CF90BF90AF9008952F923F924F925F928E
:100480006F927F928F929F92AF92BF92CF92DF92A4
:10049000EF92FF920F931F93CF93DF93CDB7DEB709
:1004A00069970FB6F894DEBF0FBECDBF8C012DB794
:1004B0003EB73F8B2E8B65E20E94C5177C019C01E5
:1004C00040E050E0B801CE0101960E94C917CE016C
:1004D00001960E94D6005C01CE0101960E94921600
:1004E000A7014F5F5F4FB801CE010F960E940E1813
:1004F00065E2CE010F960E94C5178C019C0140E079
:1005000050E0BE01615F7F4FCE0101960E94C91786
:10051000CE0101960E94D600382ECE0101960E948F
:100520009216A8014F5F5F4FBE01615F7F4FCE0102
:1005300008960E940E186501CC0CDD1C27E02C9D4E
:10054000C0012D9D900D11242DB73EB7281B390BEE
:100550000FB6F8943EBF0FBE2DBF0DB71EB70F5F8D
:100560001F4F7801812C912C07C06EE171E00E9431
:1005700003173FEF831A930AC70127E0E20EF11C2D
:100580008C149D0491F7BE01685F7F4F66246394CD
:10059000712C6C0E7D1EC3010E94371725E2A3014A
:1005A000B601C8010E94F600C3010E949216E12C18
:1005B000F12C67E0262E962C872C55C0C7018A0D9A
:1005C0009B1D289EB001299E700D1124600F711F84
:1005D000892D982D0E943717892D982D0E94D600BD
:1005E000BC0188EE93E00E94E81D2B01892D982D17
:1005F0000E9492162E9CB0012F9C700D1124600F4A
:10060000711F892D982D0E943717892D982D0E94D2
:10061000D600BC01892D982D688F798F0E94921683
:10062000662457FC6094762CA3019201688D798D25
:10063000832D0E940F1AC301B2010E94D21C26E62C
:1006400036E646EA5FE30E945E1D0E949F1C8827F3
:1006500077FD8095982F0E94FA13832D0E942E1CFF
:100660003FEFE31AF30AEA14FB040CF4A7CF87E088
:100670008C9D70018D9DF00C1124E00EF11EE01692
:10068000F10639F087E0E81AF108C7010E949216D6
:10069000F6CFCE0108960E949216CE010F960E94C8
:1006A00092162E893F890FB6F8943EBF0FBE2DBF1C
:1006B00069960FB6F894DEBF0FBECDBFDF91CF9124
:1006C0001F910F91FF90EF90DF90CF90BF90AF9070
:1006D0009F908F907F906F905F904F903F902F9062
:1006E00008951F93CF93DF93CDB7DEB727970FB64B
:1006F000F894DEBF0FBECDBFBC01CE0101960E94B3
:100700003717CE0101960E94D600182FCE01019610
:100710000E949216812F0E942E1C27960FB6F894E5
:10072000DEBF0FBECDBFDF91CF911F910895EF9235
:10073000FF920F931F93CF93DF93CDB7DEB7279729
:100740000FB6F894DEBF0FBECDBF7C01CE0101967F
:100750000E943717CE0101960E94D6008C01CE016F
:1007600001960E9492161E141F045CF0802F0E94B6
:1007700042124AE050E0BC018DE192E00E946B160B
:100780000AC017FF04C060E0802F819502C061E0BD
:10079000802F0E940B1227960FB6F894DEBF0FBE73
:1007A000CDBFDF91CF911F910F91FF90EF900895F2
:1007B000FF920F931F93CF93DF93CDB7DEB765976B
:1007C0000FB6F894DEBF0FBECDBF8B011816190609
:1007D0000CF04CC06EE171E0CE0101960E9403174F
:1007E0006EE171E0CE0108960E940317B801CE01B8
:1007F0000F960E94371725E2AE01415F5F4F62E01E
:1008000070E0CE0101960E94F600CE010F960E9484
:100810009216BE016F5F7F4FCE010F960E94371771
:10082000CE010F960E94D600F82ECE010F960E94A0
:100830009216BE01685F7F4FCE010F960E94371758
:10084000CE010F960E94D6008C01CE010F960E9419
:100850009216B8018F2D0E944811CE0108960E9471
:100860009216CE0101960E94921617C0CE010196F3
:100870000E943717CE0101960E94D600182FCE0194
:1008800001960E949216812F0E9427114AE050E0A3
:10089000BC018DE192E00E946B1665960FB6F8944C
:1008A000DEBF0FBECDBFDF91CF911F910F91FF90A3
:1008B00008950F931F93CF93DF93CDB7DEB727979C
:1008C0000FB6F894DEBF0FBECDBFBC01CE010196BE
:1008D0000E943717CE0101960E94D6008C01CE01EE
:1008E00001960E9492161016110624F060E0802FE7
:1008F000819502C061E0802F0E94D31127960FB628
:10090000F894DEBF0FBECDBFDF91CF911F910F9145
:100910000895CF92DF92EF92FF920F931F93CF93A0
:10092000DF93CDB7DEB7A4970FB6F894DEBF0FBE46
:10093000CDBF7C018E010F5F1F4F6E018DE1C80E90
:10094000D11C6EE171E0C8010E940317095F1F4FBF
:100950000C151D05B1F7B701CE014D960E94371752
:1009600025E2AE01435E5F4F64E070E0CE01019688
:100970000E94F600CE014D960E949216CE0101967D
:100980000E941A18162FCE0108960E941A18062FD8
:10099000BE01615F7F4FCE014D960E943717CE0199
:1009A00046960E941A18262F60E171E0CE014D96FE
:1009B0002CA30E945B172CA1882311F041E001C0F9
:1009C00040E0602F812F0E943513CE014D960E948A
:1009D0009216CE0146960E949216CE010F960E9464
:1009E0009216CE0108960E949216CE0101960E94A0
:1009F0009216A4960FB6F894DEBF0FBECDBFDF915E
:100A0000CF911F910F91FF90EF90DF90CF900895BD
:100A10000F931F93CF93DF93CDB7DEB76C970FB6CD
:100A2000F894DEBF0FBECDBF8C016EE171E0CE0148
:100A300001960E9403176EE171E0CE0108960E94B4
:100A400003176EE171E0CE010F960E940317B80103
:100A5000CE0146960E94371725E2AE014A5E5F4FEF
:100A600063E070E0CE0101960E94F600CE0146964A
:100A70000E949216CE0101960E941A18162FCE01DE
:100A800008960E941A18062FBE01615F7F4FCE01A3
:100A900046960E94371760E171E0CE0146960E94AB
:100AA0005B17882311F041E001C040E0602F812FE7
:100AB0000E9400134AE050E0682F70E08DE192E060
:100AC0000E946B16CE0146960E949216CE010F969A
:100AD0000E949216CE0108960E949216CE010196AF
:100AE0000E9492166C960FB6F894DEBF0FBECDBF73
:100AF000DF91CF911F910F910895DF92EF92FF92B6
:100B00000F931F93CF93DF93CDB7DEB76D970FB6DB
:100B1000F894DEBF0FBECDBF7C010091A8011091FB
:100B2000A9010115110531F0C8010E942011C80169
:100B30000E9428186EE171E0CE0101960E94031711
:100B40006EE171E0CE0108960E9403176EE171E03C
:100B5000CE010F960E940317B701CE0146960E9460
:100B6000371725E2AE014A5E5F4F63E070E0CE01C9
:100B700001960E94F600CE0146960E949216BE0192
:100B80006F5F7F4FCE0146960E943717CE01469683
:100B90000E94D600D82ECE0146960E949216BE0123
:100BA000685F7F4FCE0146960E943717CE0146966A
:100BB0000E94D600482FCE0146964D8F0E94921675
:100BC000BE01615F7F4FCE0146960E943717CE016E
:100BD00046960E94D6007C01CE0146960E9492164F
:100BE0008CE190E00E9426188C0120E04D8D6D2D47
:100BF0000E9426101093A9010093A801A70166275F
:100C000057FD6095762FC8010E94561069E171E08A
:100C10008DE192E00E946215CE010F960E9492161D
:100C2000CE0108960E949216CE0101960E9492165D
:100C30006D960FB6F894DEBF0FBECDBFDF91CF919A
:100C40001F910F91FF90EF90DF900895EF92FF9228
:100C50000F931F93CF93DF93CDB7DEB7EDB6FEB6FC
:100C6000FC01448155814F5F5F4F2DB73EB7241B78
:100C7000350B0FB6F8943EBF0FBE2DBF0DB71EB794
:100C80000F5F1F4F20E030E0B8010E947D1769E13F
:100C900071E08DE192E00E946215A091A801B091EF
:100CA000A901F80101900020E9F7AF014150510975
:100CB000401B510BED91FC9111970280F381E02DC7
:100CC000B801CD0109950FB6F894FEBE0FBEEDBE7A
:100CD000DF91CF911F910F91FF90EF900895809138
:100CE000A8019091A901DC01ED91FC910680F781AA
:100CF000E02D0995682F8DE192E00C9476150F9305
:100D00001F93CF93DF93CDB7DEB727970FB6F89435
:100D1000DEBF0FBECDBFBC01CE0101960E943717CA
:100D2000CE0101960E94D6008C01CE0101960E9450
:100D30009216101611065CF0019560E0802F0E945B
:100D4000D31120E432E44FE050E060E009C060E0FD
:100D5000802F0E94D31120E432E44FE050E061E0A4
:100D6000802F0E946B12AB012AE030E0BC018DE1C4
:100D700092E00E94571627960FB6F894DEBF0FBE7A
:100D8000CDBFDF91CF911F910F9108950F931F93C6
:100D9000CF93DF93CDB7DEB727970FB6F894DEBFBA
:100DA0000FBECDBFBC01CE0101960E943717CE0108
:100DB00001960E94D6008C01CE0101960E949216E7
:100DC000101611061CF1019561E0802F0E94D311CD
:100DD00061E0802F0E940B1282E090E00E942014BC
:100DE00060E0802F0E940B1285E090E00E942014AA
:100DF00061E0802F0E940B1260E0802F0E94D311CF
:100E000020E432E44FE050E060E021C061E0802F58
:100E10000E94D31160E0802F0E940B1282E090E0CC
:100E20000E94201461E0802F0E940B1285E090E068
:100E30000E94201460E0802F0E940B1260E0802F3F
:100E40000E94D31120E432E44FE050E061E0802FB3
:100E50000E946B12AB012AE030E0BC018DE192E010
:100E60000E94571627960FB6F894DEBF0FBECDBF6F
:100E7000DF91CF911F910F9108958F929F92AF9222
:100E8000BF92CF92DF92EF92FF920F931F93CF9377
:100E9000DF93CDB7DEB76C970FB6F894DEBF0FBE09
:100EA000CDBF8C016EE171E0CE0101960E94031767
:100EB0006EE171E0CE0108960E9403176EE171E0C9
:100EC000CE010F960E940317B801CE0146960E94EC
:100ED000371725E2AE014A5E5F4F63E070E0CE0156
:100EE00001960E94F600CE0146960E949216BE011F
:100EF0006F5F7F4FCE0146960E943717CE01469610
:100F00000E94D6007C01CE0146960E949216BE0138
:100F1000685F7F4FCE0146960E943717CE014696F6
:100F20000E94D6004C01CE0146960E949216BE0148
:100F3000615F7F4FCE0146960E943717CE014696DD
:100F40000E94D6005C01CE0146960E949216A0E84F
:100F5000B1E0FD01819191918E159F05A1F48DE87D
:100F600091E00E94F30C9501A401B7018DE891E096
:100F70000E94720CF0927F01E0927E014AE050E004
:100F80006FEF7FEF31C081E0E039F80719F700E03B
:100F900010E08D919D91892B91F00F5F1F4F0830CC
:100FA0001105B9F7CE010F960E949216CE01089650
:100FB0000E949216CE0101960E9492161AC06801F4
:100FC000CC0CDD1CC601800F911F9501A401B70157
:100FD00080579E4F0E94720CF601E058FE4FF1823E
:100FE000E0824AE050E0B8018DE192E00E946B1689
:100FF000D9CF6C960FB6F894DEBF0FBECDBFDF9190
:10100000CF911F910F91FF90EF90DF90CF90BF9005
:10101000AF909F908F900895EF92FF920F931F9340
:10102000CF93DF93CDB7DEB727970FB6F894DEBF27
:101030000FBECDBFBC01CE0101960E943717CE0175
:1010400001960E94D6007C01CE0101960E94921664
:101050008701000F111FC8018E0D9F1D80579E4FE5
:101060000E94F30CF801E058FE4F1182108227967F
:101070000FB6F894DEBF0FBECDBFDF91CF911F91A9
:101080000F91FF90EF9008950F931F93CF93DF93ED
:10109000CDB7DEB727970FB6F894DEBF0FBECDBF32
:1010A000BC01CE0101960E943717CE0101960E9425
:1010B000D6008C01CE0101960E949216C801880FBD
:1010C000991F800F911F80579E4F0E94B10D4AE0DB
:1010D00050E0BC018DE192E00E946B1627960FB69E
:1010E000F894DEBF0FBECDBFDF91CF911F910F915E
:1010F0000895EF92FF920F931F93CF93DF93CDB795
:10110000DEB765970FB6F894DEBF0FBECDBF8C017A
:101110006EE171E0CE0101960E9403176EE171E06D
:10112000CE0108960E940317B801CE010F960E94C7
:10113000371725E2AE01415F5F4F62E070E0CE01FC
:1011400001960E94F600CE010F960E949216BE01F3
:101150006F5F7F4FCE010F960E943717CE010F961B
:101160000E94D6008C01CE010F960E949216BE01FD
:10117000685F7F4FCE010F960E943717CE010F9602
:101180000E94D6007C01CE010F960E949216C801E3
:10119000880F991F800F911FB70180579E4F0E94A3
:1011A000340DCE0108960E949216CE0101960E943F
:1011B000921665960FB6F894DEBF0FBECDBFDF91D5
:1011C000CF911F910F91FF90EF900895EF92FF92B2
:1011D0000F931F93CF93DF93CDB7DEB765970FB60D
:1011E000F894DEBF0FBECDBF8C016EE171E0CE0181
:1011F00001960E9403176EE171E0CE0108960E94ED
:101200000317B801CE010F960E94371725E2AE01F1
:10121000415F5F4F62E070E0CE0101960E94F600F0
:10122000CE010F960E949216BE016F5F7F4FCE01D6
:101230000F960E943717CE010F960E94D6008C01A0
:10124000CE010F960E949216BE01685F7F4FCE01BD
:101250000F960E943717CE010F960E94D6007C0190
:10126000CE010F960E949216C801880F991F800F19
:10127000911FB70180579E4F0E94010DCE01089625
:101280000E949216CE0101960E94921665960FB6A4
:10129000F894DEBF0FBECDBFDF91CF911F910F91AC
:1012A000FF90EF900895CF92DF92EF92FF920F930D
:1012B0001F93CF93DF93CDB7DEB7CC55D1090FB6CF
:1012C000F894DEBF0FBECDBF20E430E0AE014F5F2B
:1012D0005F4F61E28DE192E00E949514BE016F5F65
:1012E0007F4FCE018A5A9F4F0E94031765E2CE01BD
:1012F0008A5A9F4F0E94C5177C0164E2CE018A5A28
:101300009F4F0E94C5176C01970141E050E0BE015C
:101310006A5A7F4FCE01815B9F4F0E94C9178E0191
:10132000085B1F4FA7014F5F5F4F9601BE016A5ACE
:101330007F4FC8010E94C9176FE171E0CE01815B48
:101340009F4F0E945B17882361F0B801CE018F5B2D
:101350009F4F0E943717BE016F5B7F4F81E090E087
:1013600014C062E271E0CE01815B9F4F0E945B1767
:10137000882371F0B801CE018F5B9F4F0E94371711
:10138000BE016F5B7F4F80E090E00E9497038CC1AD
:1013900065E271E0CE01815B9F4F0E945B1788235D
:1013A00061F0B801CE018F5B9F4F0E943717BE01DD
:1013B0006F5B7F4F81E090E014C068E271E0CE0186
:1013C000815B9F4F0E945B17882371F0B801CE01AB
:1013D0008F5B9F4F0E943717BE016F5B7F4F80E08E
:1013E00090E00E94D80360C16BE271E0CE01815BA6
:1013F0009F4F0E945B17882361F0B801CE018F5B7D
:101400009F4F0E943717CE018F5B9F4F0E94590458
:101410004BC16EE271E0CE01815B9F4F0E945B1772
:10142000882361F0B801CE018F5B9F4F0E94371770
:10143000CE018F5B9F4F0E94C60636C161E371E00B
:10144000CE01815B9F4F0E945B17882361F0B8013A
:10145000CE018F5B9F4F0E943717CE018F5B9F4F4E
:101460000E947F0621C164E371E0CE01815B9F4F42
:101470000E945B17882361F0B801CE018F5B9F4FFC
:101480000E943717CE018F5B9F4F0E947D050CC1D4
:1014900067E371E0CE01815B9F4F0E945B17882359
:1014A00061F0B801CE018F5B9F4F0E943717CE01CC
:1014B0008F5B9F4F0E942606F7C06AE371E0CE0162
:1014C000815B9F4F0E945B17882361F0B801CE01BA
:1014D0008F5B9F4F0E943717CE018F5B9F4F0E94FB
:1014E0006F06E2C06DE371E0CE01815B9F4F0E9409
:1014F0005B17882361F0B801CE018F5B9F4F0E947C
:101500003717CE018F5B9F4F0E943D07CDC061E42E
:1015100071E0CE01815B9F4F0E945B178E01085BDB
:101520001F4F882361F0B801CE018F5B9F4F0E944F
:101530003717CE018F5B9F4F0E944408B5C065E40A
:1015400071E0CE01815B9F4F0E945B17882361F0A1
:10155000B801CE018F5B9F4F0E943717CE018F5B82
:101560009F4F0E947908A0C069E471E0CE01815BC1
:101570009F4F0E945B17882361F0B801CE018F5BFB
:101580009F4F0E943717CE018F5B9F4F0E94E60846
:101590008BC06EE471E0CE01815B9F4F0E945B17B0
:1015A000882361F0B801CE018F5B9F4F0E943717EF
:1015B000CE018F5B9F4F0E940C0876C068E071E0FF
:1015C000CE01815B9F4F0E945B17882319F00E9418
:1015D00069016FC063E571E0CE01815B9F4F0E949E
:1015E0005B17882361F0B801CE018F5B9F4F0E948B
:1015F0003717CE018F5B9F4F0E943C0255C062E5BA
:1016000071E0CE01815B9F4F0E945B17882361F0E0
:10161000B801CE018F5B9F4F0E943717CE018F5BC1
:101620009F4F0E94710340C066E571E0CE01815B6F
:101630009F4F0E945B17882361F0B801CE018F5B3A
:101640009F4F0E943717CE018F5B9F4F0E946F0103
:101650002BC06AE571E0CE01815B9F4F0E945B1752
:10166000882361F0B801CE018F5B9F4F0E9437172E
:10167000CE018F5B9F4F0E94890416C06DE571E01B
:10168000CE01815B9F4F0E945B17882391F0BE01C2
:10169000685B7F4FCE018F5B9F4F0E943717CE0153
:1016A0008F5B9F4F0E940805CE018F5B9F4F0E946A
:1016B0009216CE01885B9F4F0E949216CE01815BED
:1016C0009F4F0E949216CE018A5A9F4F0E949216F7
:1016D000C45ADF4F0FB6F894DEBF0FBECDBFDF9107
:1016E000CF911F910F91FF90EF90DF90CF900895D1
:1016F00040E855E260E070E08DE192E00E943D1923
:101700008DE192E00E94BD198823D1F308950C94D5
:101710005309CF93DF93C0E9D1E0CE010E94560C6C
:10172000239681E0C83AD807C1F7DF91CF91089599
:101730001F920F920FB60F9211242F933F934F9346
:101740005F936F937F938F939F93AF93BF93EF9329
:10175000FF938091AB0187FF05C010928500109226
:1017600084001AC02091AB01332727FD309580916A
:10177000AA0190E0281739077CF48091AB019927E2
:1017800087FD9095FC01EE0FFF1FE80FF91FE45550
:10179000FE4F808186FD37C08091AB018F5F8093C3
:1017A000AB012091AB01332727FD30958091AA0131
:1017B00090E028173907CCF58091AB018C30F4F11B
:1017C00034C08091AB01992787FD9095FC01EE0F05
:1017D000FF1FE80FF91FE455FE4F808161E08F7312
:1017E0000E940B1252C080E49CE905C080918400E5
:1017F00090918500049690938900809388008FEFE4
:101800008093AB0142C08091AB01992787FD9095F1
:10181000FC01EE0FFF1FE80FF91FE455FE4F80811A
:1018200060E08F730E940B12B7CF8091840090917B
:101830008500049680349C49B0F2D8CF8091840012
:10184000909185002091AB01332727FD3095F90158
:10185000EE0FFF1FE20FF31FE455FE4F218132818F
:10186000820F931F90938900809388008091AB0131
:10187000992787FD9095FC01EE0FFF1FE80FF91FD8
:10188000E455FE4F808186FD9CCFFF91EF91BF9183
:10189000AF919F918F917F916F915F914F913F9108
:1018A0002F910F900FBE0F901F9018952091AA01B5
:1018B0002C30A0F4FC012083822F8F5F8093AA013B
:1018C000822F90E0FC01EE0FFF1FE80FF91FE45597
:1018D000FE4F88EB9BE09283818308952FEFFC01FC
:1018E00020830895DF92EF92FF920F931F93CF937F
:1018F000DF93EC01D62E7A01890188818C3008F0C3
:1019000065C061E08D2D0E94D3118881A82FB0E0C1
:10191000FD01EE0FFF1FEA0FFB1FE455FE4F2D2DBB
:101920002F739081907C922B908360E272E06E190D
:101930007F0977FF02C06D5F7F4F7595679575953D
:101940006795698340E659E0401B510B57FF02C081
:101950004D5F5F4F55954795559547954A836CE088
:101960000E94DC1D9CE0899FB001112420E030E042
:10197000A901460F571FFA01EE0FFF1FE40FF51FD5
:10198000E455FE4F908196FD15C02F5F3F4F2C30E0
:10199000310571F71DC01092800082E080938100B4
:1019A0001092850010928400B19A80916F0082603D
:1019B00080936F00888190E0FC01EE0FFF1FE80F1D
:1019C000F91FE455FE4F808180648083888103C0C5
:1019D000882309F3EFCFDF91CF911F910F91FF90F3
:1019E000EF90DF900895FC01808190E0FC01EE0F04
:1019F000FF1FE80FF91FE455FE4F80818F7B808326
:101A00000895FC0180818C3070F5918128E830E0E8
:101A1000291B310997FD3395220F331F220F331FE6
:101A2000621773077CF0928128E532E0291B3109A7
:101A300097FD3395220F331F220F331F6217730751
:101A40000CF49B014FB7F89490E0FC01EE0FFF1FE0
:101A5000E80FF91FE455FE4F22503109220F331FC2
:101A6000328321834FBF0895AF92BF92CF92DF920E
:101A7000EF92FF920F931F93CF93DF93EC016032AD
:101A800082E078070CF041C077FD04C0653B71052A
:101A900024F405C060E070E002C064EB70E02981CE
:101AA00088E890E0821B910927FD9395880F991F84
:101AB000880F991F5C01CC24B7FCC094DC2C8827CC
:101AC00077FD8095982F2A8148E552E0421B510905
:101AD00027FD5395440F551F440F551F8A01222798
:101AE00017FD2095322F3F932F931F930F9314EBE5
:101AF000E12EF12C00E010E020E030E0A9010E948E
:101B0000C6140F900F900F900F90CE01DF91CF91E0
:101B10001F910F91FF90EF90DF90CF90BF90AF900B
:101B20000C94010DFC0180818F3FB9F090E0FC0125
:101B3000EE0FFF1FE80FF91FE455FE4F21813281A0
:101B400043E0220F331F4A95E1F754E0369527957D
:101B50005A95E1F72E5F3F4F02C020E030E0C90107
:101B60000895AF92BF92CF92DF92EF92FF920F93C0
:101B70001F93CF93DF93EC010E94920D2A8148E5D9
:101B800052E0421B510927FD5395440F551F440F46
:101B9000551F7A010027F7FC0095102F498128E88E
:101BA00030E0241B310947FD3395220F331F220FEC
:101BB000331F442737FD4095542F0196BC018827D9
:101BC00077FD8095982F1F921F921F92E4EBEF9361
:101BD000A12CB12C65010E94C6140F900F900F909C
:101BE0000F90CB01DF91CF911F910F91FF90EF905C
:101BF000DF90CF90BF90AF90089520911202309166
:101C0000130228173907C1F49091D0018091D101B6
:101C1000981791F0E091D001F0E0EE52FE4F8081F4
:101C20002091D00130E02F5F3F4F2F733327209357
:101C3000D001282F30E002C02FEF3FEFC9010895F7
:101C400020911202309113022817390781F49091E4
:101C5000D0018091D101981751F0E091D001F0E0CE
:101C6000EE52FE4F2081332727FD309502C02FEF23
:101C70003FEFC901089520911202309113022817F5
:101C8000390739F48FB7F8941092D1011092D0012E
:101C90008FBF08952091120230911302281739073F
:101CA00079F48091D1012091D00190E0805C9F4F28
:101CB000821B910960E470E00E94E81D9C0102C053
:101CC00020E030E0C9010895DC015196ED91FC91CE
:101CD0005297208150968C9180958223808308951D
:101CE00020E001972FEF8F3F9207D9F708952091B9
:101CF0001202309113022817390789F0FC01238D55
:101D00002E7F238F2FB7F8941092D1011092D0011B
:101D100090931302809312022FBF81E0089580E018
:101D20000895EF92FF920F931F93CF93DF93EC01EF
:101D30008B8DEE85FF859D8581FF04C08081892381
:101D400029F445C08081892309F041C08B899C8991
:101D50000E94700E08E010E0EE24E394F12C8D89CF
:101D60009E890E94700EEE85FF8580819D85892366
:101D700011F0FE2803C08E2D8095F822EE0C015044
:101D8000110969F78F89988D0E94700E8B8D81FDE6
:101D9000F0948091D1012091D00190E001968F7351
:101DA000992730E08217930779F0E091D101F0E0B4
:101DB000EE52FE4FF0828091D10190E001968F7338
:101DC00099278093D10103C08B8D81608B8FDF9128
:101DD000CF911F910F91FF90EF900895611102C074
:101DE0000C94640EDC015196ED91FC915297208188
:101DF00050968C91282B20830895DF92EF92FF92CA
:101E00000F931F93CF93DF93EC01E62E898D9A8D6C
:101E1000892B39F481E090E09B838A8320E030E0D5
:101E200049C0DFB6F8946B8D66956170CE010E9453
:101E3000EE0E898D9A8D05960E94700E8B8D08E0AE
:101E400010E0FF24F39481FF17C08F2D8E2121F025
:101E5000CE010E94640E04C061E0CE010E94EE0E2D
:101E6000898D9A8D0E94700EFF0C0150110969F73F
:101E7000CE010E94640E17C08F2D8E2129F061E0E3
:101E8000CE010E94EE0E03C0CE010E94640E898D29
:101E90009A8D0E94700EFF0C0150110969F761E0E4
:101EA000CE010E94EE0EDFBE898D9A8D0E94700ECB
:101EB00021E030E0C901DF91CF911F910F91FF9098
:101EC000EF90DF9008958091120290911302009795
:101ED00011F00C94910E08951F920F920FB60F926D
:101EE00011242F933F934F935F936F937F938F931F
:101EF0009F93AF93BF93EF93FF930E94630FFF9164
:101F0000EF91BF91AF919F918F917F916F915F9171
:101F10004F913F912F910F900FBE0F901F901895EA
:101F20001F920F920FB60F9211242F933F934F934E
:101F30005F936F937F938F939F93AF93BF93EF9331
:101F4000FF930E94630FFF91EF91BF91AF919F911B
:101F50008F917F916F915F914F913F912F910F9052
:101F60000FBE0F901F9018951F920F920FB60F92F1
:101F700011242F933F934F935F936F937F938F938E
:101F80009F93AF93BF93EF93FF930E94630FFF91D3
:101F9000EF91BF91AF919F918F917F916F915F91E1
:101FA0004F913F912F910F900FBE0F901F9018955A
:101FB0001F93CF93DF93EC01162F61E0812F0E94D6
:101FC000D31161E0812F0E940B12812F90E0FC0160
:101FD000E45FFE4FE491E88BFC01E05EFE4FE4918C
:101FE000F0E0EE0FFF1FE25CFE4F85919491898B2C
:101FF0009A8BDF91CF911F9108951F93CF93DF9319
:10200000EC01162F60E0812F0E94D3118B8D81FD92
:1020100004C061E0812F0E940B121C87812F90E089
:10202000FC01E45FFE4FE491ED87FC01E05EFE4FB2
:10203000E491F0E0EE0FFF1FEC5CFE4F8591949170
:102040008E879F87DF91CF911F910895FF920F9305
:102050001F93CF93DF93EC01F62E522F1B821A822F
:1020600008EE13E020E030E00C831D832E833F83D5
:1020700084E691E0998388831C8A1B8A1E8A1D8AC4
:10208000188E1F8A1A8E198E8B8D8E7F50FB81F9C8
:102090008B8F642FCE010E94D80F6F2DCE01DF9160
:1020A000CF911F910F91FF900C94FD0FFF920F9312
:1020B0001F93CF93DF93EC011A8E198E188E1F8A0F
:1020C0001E8A1D8A1C8A1B8AA0E0B0E02CE0F22E3A
:1020D000FA9EC001FB9E900D1124FC01E859FF4FB0
:1020E0000591159125913491041715072607370797
:1020F000E9F4FC01E459FF4F259134912B8B3C8B83
:10210000FC01E259FF4F259134912D8B3E8BFC0150
:10211000E059FF4F259134912F8B388F8E589F4F68
:10212000FC0185919491898F9A8F05C01196AC30EE
:10213000B10509F0CDCF8F89988D892B09F449C05D
:102140003C85363108F041C040916800383068F075
:1021500081E090E03E3010F480E090E021E030E05B
:1021600001C0220F8A95EAF701C024E0242B2093B6
:1021700068003C85383038F03E3040F0363148F069
:10218000E0E0F0E008C0EDE6F0E005C0EBE6F0E0EE
:1021900002C0ECE6F0E04081383040F481E090E0AD
:1021A000282F01C0220F3A95EAF70DC0832F90E047
:1021B0003E3010F4089701C00E9721E030E001C0D6
:1021C000220F8A95EAF7242B2083898D9A8D0E940D
:1021D000700ECE01DF91CF911F910F91FF900C9463
:1021E000770EFC014485463150F5483028F04E30DA
:1021F00030F4EBE6F0E005C0EDE6F0E002C0ECE61E
:10220000F0E05081483040F481E090E0042E01C0BD
:10221000880F0A94EAF710C0242F30E04E3018F4EB
:102220002850310902C02E50310981E090E0022E81
:1022300001C0880F0A94EAF780958523808308956A
:1022400024E631E0FC01318320830C94F1108E30C0
:1022500008F08E5087702091060140E4249F900181
:102260001124822B80937C0080917A00806480937B
:102270007A0080917A0086FDFCCF20917800309121
:102280007900932F80E0AC01422B9A01C901089597
:102290001F93CF93DF93182FEB0161E00E94D311BE
:1022A000209711F460E004C0CF3FD10539F461E01C
:1022B000812FDF91CF911F910C940B12E12FF0E051
:1022C000E850FF4FE491E330B9F028F4E13051F0E9
:1022D000E230B1F50CC0E63019F1E73049F1E430F5
:1022E00079F514C084B5806884BDC7BD2EC084B59F
:1022F000806284BDC8BD29C08091800080688093C1
:102300008000D0938900C09388001FC08091800016
:10231000806280938000D0938B00C0938A0015C0A8
:102320008091B00080688093B000C093B3000DC06E
:102330008091B00080628093B000C093B40005C06B
:10234000C038D1050CF0B3CFADCFDF91CF911F9145
:102350000895833069F028F48130A1F0823011F5BE
:1023600014C08630B1F08730C1F08430D9F404C095
:10237000809180008F7703C0809180008F7D809353
:102380008000089584B58F7702C084B58F7D84BDA9
:1023900008958091B0008F7703C08091B0008F7D49
:1023A0008093B0000895CF93DF9390E0FC01E45F49
:1023B000FE4F4491FC01E05EFE4F8491882341F181
:1023C00090E0880F991FFC01E85BFE4F2591349146
:1023D000D901825C9E4FFC0185919491C82FD92F21
:1023E0009FB7F8948C91611106C0409584238C931B
:1023F0008881842308C0623041F4242F20958223F1
:102400008C938881842B888302C0842B8C939FBFFC
:10241000DF91CF9108950F931F93CF93DF931F9276
:10242000CDB7DEB7282F30E0F901E850FF4F849197
:10243000F901E45FFE4F1491F901E05EFE4F049153
:102440000023D1F0882321F069830E94A9116981BA
:10245000E02FF0E0EE0FFF1FE25CFE4F85919491BC
:10246000DC019FB7F8948C91611103C01095812312
:1024700001C0812B8C939FBF0F90DF91CF911F9153
:102480000F910895CF93DF93282F30E0F901E850A2
:10249000FF4F8491F901E45FFE4FD491F901E05EB2
:1024A000FE4FC491CC2389F081110E94A911EC2F19
:1024B000F0E0EE0FFF1FEC5CFE4F85919491DC0184
:1024C0008C918D2321E030E011F420E030E0C9014F
:1024D000DF91CF9108958F929F92AF92BF92CF924A
:1024E000DF92EF92FF920F931F93CF93DF9390E0D1
:1024F000FC01E45FFE4FD491FC01E05EFE4F74915D
:10250000611102C0C0E001C0CD2FDA01C901BF7066
:10251000672F70E0660F771F6C5C7E4F812C912CCB
:102520005401FB010591149110C0C12CD12C7601EE
:10253000C394C80CD91CEA1CFB1C88169906AA0671
:10254000BB0609F44BC046015701F801E081ED23B9
:10255000EC1759F310C0C12CD12C7601C394C80CD0
:10256000D91CEA1CFB1C88169906AA06BB06B1F109
:102570004601570103C0FB0105911491F801E08168
:10258000ED23EC13E8CF88199909AA09BB0920E0CB
:1025900030E0A901FB016591749109C02817390742
:1025A0004A075B07D9F02F5F3F4F4F4F5F4FFB014B
:1025B000E081ED23EC1791F3A5E1B0E00E94C11D8D
:1025C0008B019C01005F1F4F2F4F3F4F84E03695DA
:1025D0002795179507958A95D1F703C000E010E07D
:1025E0009801B801C901DF91CF911F910F91FF9020
:1025F000EF90DF90CF90BF90AF909F908F90089515
:10260000CF92DF92EF92FF920F931F93CF93DF93BE
:10261000D82EE62EC42EC7E0D0E0F12C07E010E063
:1026200061E08E2D0E940B128D2DC11006C00E94FC
:10263000421298012C1B3D0B03C00E9442122C2F0A
:1026400001C0880F2A95EAF7F82A60E08E2D0E94D3
:102650000B12219728F78F2DDF91CF911F910F91AA
:10266000FF90EF90DF90CF900895BF92CF92DF92CE
:10267000EF92FF920F931F93CF93DF93C82ED62E26
:10268000B42EC7E0D0E0022F10E087E0E82EF12C56
:10269000B1100AC0F701EC1BFD0BB80102C0759523
:1026A0006795EA95E2F707C0B8010C2E02C0759550
:1026B00067950A94E2F7617077278C2D0E940B12C0
:1026C00061E08D2D0E940B1260E08D2D0E940B1297
:1026D0002197F0F6DF91CF911F910F91FF90EF902E
:1026E000DF90CF90BF9008951F920F920FB60F9278
:1026F00011242F933F938F939F93AF93BF93809118
:10270000140290911502A0911602B0911702309117
:102710001C02232F2D5F2D3720F40196A11DB11D22
:1027200005C0232F2A570296A11DB11D20931C021C
:102730008093140290931502A0931602B09317028F
:102740008091180290911902A0911A02B0911B0277
:102750000196A11DB11D8093180290931902A093B8
:102760001A02B0931B02BF91AF919F918F913F913D
:102770002F910F900FBE0F901F9018950F931F93DE
:102780008FB7F8940091140210911502209116024F
:10279000309117028FBFB801C9011F910F910895A1
:1027A0000F931F939FB7F89400911802109119028C
:1027B00020911A0230911B0286B5A89B06C08F3F5C
:1027C00021F00F5F1F4F2F4F3F4F9FBF322F212F01
:1027D000102F0027080F111D211D311D42E0000F91
:1027E000111F221F331F4A95D1F7B801C9011F914C
:1027F0000F910895CF92DF92EF92FF92CF93DF93E4
:102800006B017C010E94D013EB010EC00E94D0131B
:102810006C1B7D0B683E734038F081E0C81AD1080C
:10282000E108F108C851DC4FC114D104E104F104FE
:1028300069F7DF91CF91FF90EF90DF90CF900895EF
:10284000019739F0880F991F880F991F02970197F8
:10285000F1F70895789484B5826084BD84B5816071
:1028600084BD85B5826085BD85B5816085BDEEE698
:10287000F0E0808181608083E1E8F0E01082808177
:1028800082608083808181608083E0E8F0E08081E5
:1028900081608083E1EBF0E0808184608083E0EB05
:1028A000F0E0808181608083EAE7F0E080818460ED
:1028B0008083808182608083808181608083808149
:1028C000806880831092C10008950F931F93CF9367
:1028D000DF93EC010E94BE13688779878A879B8704
:1028E000E881F9810680F781E02DCE0109959C01F0
:1028F00097FF15C00E94BE13088519852A853B8560
:10290000601B710B820B930B0C811D812E813F810B
:10291000601771078207930718F32FEF3FEFC90184
:10292000DF91CF911F910F910895AF92BF92CF92F7
:10293000DF92EF92FF920F931F93CF93DF936C017F
:102940008A017901C0E0D0E02115310599F0A62E69
:10295000BB24A7FCB094C6010E94651497FD0AC071
:102960008A159B0539F0F80181938F012196CE15C8
:10297000DF0589F7CE01DF91CF911F910F91FF9075
:10298000EF90DF90CF90BF90AF9008954F925F92FD
:102990006F927F92AF92BF92CF92DF92EF92FF92AF
:1029A0000F931F93CF93DF93CDB7DEB729013A0181
:1029B000621B730B840B950B29893A894B895C89BF
:1029C0002A193B094C095D09298B3A8B4B8B5C8B8F
:1029D0009B01AC0169897A898B899C890E94CC1DF5
:1029E000E418F50806091709A80197010E941E1EA0
:1029F0002A0D3B1D4C1D5D1DB901CA01DF91CF9110
:102A00001F910F91FF90EF90DF90CF90BF90AF900C
:102A10007F906F905F904F900895CF92DF92EF92EA
:102A2000FF920F931F93CF93DF936C01EB017A0119
:102A3000E60EF71E00E010E00BC06991D601ED91A3
:102A4000FC910190F081E02DC6010995080F191F36
:102A5000CE15DF0591F7C801DF91CF911F910F913E
:102A6000FF90EF90DF90CF900895DB010D90002054
:102A7000E9F7AD0141505109461B570BDC01ED91BF
:102A8000FC910280F381E02D0994DC01ED91FC9131
:102A90000190F081E02D09940F931F93CF93DF9362
:102AA000EC016DE00E9445158C016AE0CE010E94A8
:102AB00045159C01200F311FC901DF91CF911F9156
:102AC0000F9108950F931F93CF93DF93EC010E9412
:102AD00035158C01CE010E944C159801280F391F25
:102AE000C901DF91CF911F910F9108950F931F930B
:102AF000CF93DF93EC010E9445158C01CE010E941B
:102B00004C159C01200F311FC901DF91CF911F91FE
:102B10000F9108954F925F926F927F929F92AF9222
:102B2000BF92CF92DF92EF92FF920F931F93CF93BA
:102B3000DF93CDB7DEB7A1970FB6F894DEBF0FBE17
:102B4000CDBF5C016A017B01922E19A281E0821740
:102B500010F08AE0982E8E010F5D1F4F492C512CEA
:102B6000612C712CC701B601A30192010E94FC1DCA
:102B70008C2D929E80191124015011098A3014F471
:102B8000805D01C0895CF801808369017A01C1140C
:102B9000D104E104F10431F7B801C5010E943515F3
:102BA000A1960FB6F894DEBF0FBECDBFDF91CF91D7
:102BB0001F910F91FF90EF90DF90CF90BF90AF905B
:102BC0009F907F906F905F904F90089521153105F1
:102BD00041F4DC01ED91FC910190F081E02D642F36
:102BE00009940C948A150F931F93CF93DF93EC01F4
:102BF0009A01462F50E060E070E00E94E6158C01DB
:102C0000CE010E944C159801280F391FC901DF9190
:102C1000CF911F910F910895CF92DF92EF92FF9283
:102C20000F931F93CF93DF93EC016A017B01211572
:102C3000310579F4E881F9810190F081E02D642F6C
:102C4000DF91CF911F910F91FF90EF90DF90CF9088
:102C500009942A30310519F477FD0EC02AE0B70136
:102C6000A601CE01DF91CF911F910F91FF90EF90C0
:102C7000DF90CF900C948A156DE20E9445158C016F
:102C800044275527BA014C195D096E097F092AE0CE
:102C9000CE010E948A15080F191FC801DF91CF913C
:102CA0001F910F91FF90EF90DF90CF9008950F93B9
:102CB0001F93CF93DF93EC010E940C168C01CE0181
:102CC0000E944C159C01200F311FC901DF91CF914B
:102CD0001F910F9108950F931F93CF93DF93EC01F2
:102CE0009A01AB01662757FD6095762F0E940C165E
:102CF0008C01CE010E944C159801280F391FC90183
:102D0000DF91CF911F910F9108950E942A140E9484
:102D1000780BC9EFD8E10E94870B2097E1F30E945E
:102D2000F918F9CFFC01808191810C94FB1ECF939F
:102D3000DF93EC0188819981009711F00E94FB1EBE
:102D4000198218821D821C821B821A82DF91CF9108
:102D500008950F931F93CF93DF93EC018B016F5F67
:102D60007F4F888199810E94971F009731F0998346
:102D700088831B830A8381E001C080E0DF91CF91CB
:102D80001F910F910895CF93DF93EC018881998172
:102D9000892B31F08A819B818617970708F00CC038
:102DA000CE010E94A916882349F08C819D81892B30
:102DB00019F4E881F981108281E001C080E0DF919F
:102DC000CF910895EF92FF920F931F93CF93DF93CC
:102DD000EC017B018A01BA010E94C316811104C073
:102DE000CE010E94971607C01D830C83B70188810E
:102DF00099810E94C120CE01DF91CF911F910F9147
:102E0000FF90EF900895DC0111961C921E9213968C
:102E10001C921E92129715961C921E92149716964B
:102E20001C926115710559F0DB010D900020E9F746
:102E3000AD0141505109461B570B0C94E216089501
:102E4000CF93DF93EC01FB018617970761F0608158
:102E500071816115710529F0448155810E94E21646
:102E600002C00E949716CE01DF91CF910895FC0118
:102E700011821082138212821582148216820C949F
:102E80002017CF93DF93D82FC92F6115710561F0FB
:102E9000DB010D900020E9F7AD0141505109461BBF
:102EA000570B0E94E21602C00E9497168D2F9C2F8E
:102EB000DF91CF910895DC0114962D913C911597E7
:102EC000232B39F481E06115710511F0FB0108C075
:102ED0000895DC01ED91FC916115710529F481E003
:102EE0009081992349F007C0CF010E94B8209C012E
:102EF00081E0232B09F080E008950F931F93CF9377
:102F0000DF93EB0141155105E9F02097D9F0FC0161
:102F1000048115812017310708F013C04150510971
:102F2000021B130B4017510708F48A01FC01608152
:102F30007181620F731FA801CE010E94C820C00FCB
:102F4000D11F1882DF91CF911F910F910895CF93D8
:102F5000DF93FC01848195814817590780F4C08173
:102F6000D181772767FD7095CE01840F951F0E9450
:102F7000AD20009721F09C012C1B3D0B02C02FEFD0
:102F80003FEFC901DF91CF91089540E050E00C94EC
:102F9000A717BF92CF92DF92EF92FF920F931F93EA
:102FA000CF93DF936C017B01EA0189012417350778
:102FB00020F48D2FE901042F182F6EE171E0C60176
:102FC0000E940317D70114968D919C9115978C1729
:102FD0009D07C8F08017910708F48C01D701ED9187
:102FE000FC911197E00FF11FB08010826D917C91E0
:102FF0006C0F7D1FC6010E944117D701ED91FC9116
:10300000E00FF11FB082C601DF91CF911F910F91A8
:10301000FF90EF90DF90CF90BF900895CF93DF9314
:10302000EC01FB01248135810E94C917CE01DF919B
:10303000CF910895FC0180819181009711F00C944B
:103040007D2060E070E080E090E008950C94601EC8
:103050000C94FB1EFC0184859585FC01E05CFF4F10
:1030600020813181FC01EE5BFF4F80819181281B23
:10307000390B2F733327C9010895FC018485958589
:10308000FC01E05CFF4F40815181FC01EE5BFF4F92
:10309000208131814217530741F00190F081E02DEA
:1030A000E80FF91F208130E002C02FEF3FEFC90188
:1030B0000895FC0184859585FC01E05CFF4F40810B
:1030C0005181FC01EE5BFF4F208131814217530794
:1030D00081F0A081B181A80FB91F8C91208131812D
:1030E0002F5F3F4F2F73332731832083282F30E00A
:1030F00002C02FEF3FEFC9010895FC018685978537
:10310000FC01E05CFF4FDC01AE5BBF4F40815181B1
:103110002D913C91119742175307C1F70895CF9312
:10312000DF93FC0186859785DC01A05CBF4F2D9164
:103130003C9111972F5F3F4F2F733327EC01CE5BEC
:10314000DF4F4881598124173507D9F30D90BC9181
:10315000A02DA80FB91F6C93A685B785A05CBF4FA3
:1031600011963C932E93A689B7892C9181E090E02B
:10317000058C02C0880F991F0A94E2F7282B2C9324
:1031800081E090E0DF91CF91089508951F920F9212
:103190000FB60F9211242F933F934F938F939F93CA
:1031A000EF93FF934091C6008091C0029091C102BD
:1031B00001968F7399272091C2023091C302821722
:1031C000930759F0E091C002F091C102E058FD4F21
:1031D00040839093C1028093C002FF91EF919F9131
:1031E0008F914F913F912F910F900FBE0F901F9095
:1031F00018958DE192E00E942A18892B11F00C9409
:10320000C51808951F920F920FB60F9211242F9395
:103210003F938F939F93EF93FF9320917C02309184
:103220007D0280917E0290917F022817390731F448
:103230008091C1008F7D8093C10014C0E0917E0217
:10324000F0917F02E45CFD4F208180917E0290919D
:103250007F0201968F73992790937F0280937E025D
:103260002093C600FF91EF919F918F913F912F91F5
:103270000F900FBE0F901F901895CF92DF92EF9294
:10328000FF92CF93DF93EC016A017B01411581EE40
:10329000580761057105F9F0EC89FD8981E090E03E
:1032A0000E8C02C0880F991F0A94E2F7808360E0B9
:1032B00079E08DE390E0A70196010E94FC1D21506A
:1032C000310941095109569547953795279521159B
:1032D00080E1380798F0EC89FD89108260E874E895
:1032E0008EE190E0A70196010E94FC1D215031095A
:1032F000410951095695479537952795E889F989E8
:103300003083EA89FB892083EE89FF89408181E04F
:1033100090E09C010A8C02C0220F331F0A94E2F74E
:10332000422B4083EE89FF8940819C010B8C02C0B7
:10333000220F331F0A94E2F7422B4083EE89FF8964
:1033400040819C010C8C02C0220F331F0A94E2F7CB
:10335000422B4083EE89FF8920810D8C02C0880FAB
:10336000991F0A94E2F7809582238083DF91CF91A1
:10337000FF90EF90DF90CF90089581E00895109234
:10338000200210921F0288EE93E0A0E0B0E080934C
:10339000210290932202A0932302B093240284E797
:1033A00091E090931E0280931D0280E892E090933A
:1033B0002A02809329028CE392E090932C0280935E
:1033C0002B0285EC90E090932E0280932D0284ECEA
:1033D00090E09093300280932F0280EC90E09093E5
:1033E00032028093310281EC90E09093340280931A
:1033F000330286EC90E0909336028093350284E0AD
:103400008093370283E08093380287E0809339020B
:1034100085E080933A0281E080933B0208953F92D9
:103420004F925F926F927F928F929F92AF92BF92D4
:10343000CF92DF92EF92FF920F931F93CF93DF9380
:1034400000D000D0CDB7DEB78B0129013A019091B1
:103450000701981721F09F3F09F0CAC104C0E2E5B7
:10346000F1E034907EC080930701E2E5F1E0349012
:103470009FEF391609F4BCC1E1E03E1631F1F2E0EC
:103480003F1609F448C031106CC014BC15BC94B58B
:10349000926094BD95B5916095BD282F30E0F901FB
:1034A000E05EFE4FE491F0E0EE0FFF1FE25CFE4FA6
:1034B000459154914093D3025093D402F901E45FB3
:1034C000FE4F24912093D2024EC0109280001092A1
:1034D000810090918100986090938100909181008B
:1034E000916090938100282F30E0F901E05EFE4F5B
:1034F000E491F0E0EE0FFF1FE25CFE4F4591549126
:103500004093CC025093CD02F901E45FFE4F249129
:103510002093CB0228C01092B0001092B10090917D
:10352000B00092609093B0009091B1009160909340
:10353000B100282F30E0F901E05EFE4FE491F0E0A9
:10354000EE0FFF1FE25CFE4F459154914093C50280
:103550005093C602F901E45FFE4F24912093C40208
:1035600002C037FC45C161E00E94D3114801A12C83
:10357000B12C60E072E18AE790E0A50194010E941D
:103580001E1E332019F082E03812B7C029833A8317
:103590004B835C8369017A0191E0C91AD108E10883
:1035A000F108EFEFCE16D104E104F10409F008F4BC
:1035B0009AC060E472E48FE090E0A50194010E945B
:1035C0001E1E69017A01F1E0CF1AD108E108F10865
:1035D00082E0381219C09FEFC916D104E104F1044A
:1035E00009F008F401C160E970ED83E090E0A50105
:1035F00094010E941E1E69017A01E1E0CE1AD108F1
:10360000E108F10883E001C082E0FFEFCF16D104AA
:10361000E104F10409F008F467C068E478EE81E0A1
:1036200090E0A50194010E941E1E69017A0181E0CB
:10363000C81AD108E108F1083320E1F092E039120C
:103640001BC0EFEFCE16D104E104F10409F008F439
:10365000CDC064E274EF80E090E0A50194010E9487
:103660001E1E69017A01F1E0CF1AD108E108F108C4
:1036700085E003C083E001C084E09FEFC916D10458
:10368000E104F10489F180F162E17AE780E090E001
:10369000A50194010E941E1E69017A01E1E0CE1A83
:1036A000D108E108F108311002C084E001C086E0D1
:1036B000FFEFCF16D104E104F104B1F0A8F0C98006
:1036C000DA80EB80FC809AE0F594E794D794C79475
:1036D0009A95D1F781E0C81AD108E108F1083320A2
:1036E00031F087E007C081E0332011F003C085E0AE
:1036F00085BD2BC08093B10028C069017A0191E09B
:10370000C91AD108E108F108C114D104E1E0EE06BC
:10371000F10488F068E478EE81E090E0A50194017E
:103720000E941E1E69017A01F1E0CF1AD108E1085A
:10373000F10893E001C091E081E0381206C0809169
:103740008100887F892B809381004114510461049A
:10375000710471F0D801AA0FBB1FA30192010E944E
:10376000C11D28EE33E040E050E00E94FC1D03C084
:103770002FEF3FEFA90191E03916A1F0E2E03E16EC
:1037800019F1311035C0C7BC2093D5023093D60251
:103790004093D7025093D80280916E00826080934C
:1037A0006E0026C0D0928900C09288002093CE027D
:1037B0003093CF024093D0025093D10280916F009A
:1037C000826080936F0014C0C092B3002093C70240
:1037D0003093C8024093C9025093CA02809170008E
:1037E00082608093700004C082E084CF84E082CF46
:1037F0000F900F900F900F90DF91CF911F910F912D
:10380000FF90EF90DF90CF90BF90AF909F908F9000
:103810007F906F905F904F903F900895813039F086
:1038200018F08230D1F409C010926E000895809192
:103830006F008D7F80936F000895809170008D7F61
:103840008093700081E08093B0008091B100887F08
:1038500084608093B1001092B3000895CF93C82F75
:10386000809107018C1307C0E2E5F1E084919FEF9E
:103870009093070101C08FEF0E940E1C60E08C2F17
:10388000CF910C940B121F920F920FB60F9211242E
:103890002F933F934F935F936F937F938F939F9358
:1038A000AF93BF93EF93FF938091C7029091C802AB
:1038B000A091C902B091CA02892B8A2B8B2B51F19E
:1038C0009091C402E091C502F091C60280818927DF
:1038D00080838091C7029091C802A091C902B091E3
:1038E000CA02181619061A061B06C4F48091C702EC
:1038F0009091C802A091C902B091CA020197A10992
:10390000B1098093C7029093C802A093C902B093F3
:10391000CA0204C0809107010E942E1CFF91EF9102
:10392000BF91AF919F918F917F916F915F914F91D7
:103930003F912F910F900FBE0F901F90189504D0BC
:103940006894B111B5C0089598D088F09F5790F051
:10395000B92F9927B751A0F0D1F0660F771F881FB4
:10396000991F1AF0BA95C9F712C0B13081F09FD0F3
:10397000B1E008959CC0672F782F8827B85F39F091
:10398000B93FCCF3869577956795B395D9F73EF413
:1039900090958095709561957F4F8F4F9F4F0895BB
:1039A000E89409C097FB3EF49095809570956195D9
:1039B0007F4F8F4F9F4F9923A9F0F92F96E9BB278F
:1039C0009395F695879577956795B795F111F8CF0B
:1039D000FAF4BB0F11F460FF1BC06F5F7F4F8F4F76
:1039E0009F4F16C0882311F096E911C0772321F06C
:1039F0009EE8872F762F05C0662371F096E8862F04
:103A000070E060E02AF09A95660F771F881FDAF75A
:103A1000880F9695879597F9089597F99F6780E89D
:103A200070E060E008959FEF80EC089500240A9410
:103A30001616170618060906089500240A94121689
:103A40001306140605060895092E0394000C11F4BC
:103A5000882352F0BB0F40F4BF2B11F460FF04C069
:103A60006F5F7F4F8F4F9F4F089557FD9058440FC2
:103A7000551F59F05F3F71F04795880F97FB991FCD
:103A800061F09F3F79F0879508951216130614068A
:103A9000551FF2CF4695F1DF08C016161706180617
:103AA000991FF1CF86957105610508940895E894F2
:103AB000BB2766277727CB0197F908950BD0C4CF92
:103AC000B5DF28F0BADF18F0952309F0A6CFABCF09
:103AD0001124EECFCADFA0F3959FD1F3950F50E0EC
:103AE000551F629FF001729FBB27F00DB11D639FB0
:103AF000AA27F00DB11DAA1F649F6627B00DA11D56
:103B0000661F829F2227B00DA11D621F739FB00DFB
:103B1000A11D621F839FA00D611D221F749F33276B
:103B2000A00D611D231F849F600D211D822F762F04
:103B30006A2F11249F5750408AF0E1F088234AF001
:103B4000EE0FFF1FBB1F661F771F881F915050404D
:103B5000A9F79E3F510570F060CFAACF5F3FECF30D
:103B6000983EDCF3869577956795B795F795E79539
:103B70009F5FC1F7FE2B880F911D9695879597F94A
:103B800008950E943A1EA59F900DB49F900DA49F8A
:103B9000800D911D11240895DB018F939F930E9446
:103BA000C11DBF91AF91A29F800D911DA39F900D4C
:103BB000B29F900D11240895991B79E004C0991FBC
:103BC000961708F0961B881F7A95C9F78095089577
:103BD00097FB072E16F4009407D077FD09D00E94BA
:103BE000461E07FC05D03EF4909581959F4F0895A1
:103BF000709561957F4F0895A1E21A2EAA1BBB1BF9
:103C0000FD010DC0AA1FBB1FEE1FFF1FA217B307A8
:103C1000E407F50720F0A21BB30BE40BF50B661FBE
:103C2000771F881F991F1A9469F760957095809582
:103C300090959B01AC01BD01CF010895052E97FB26
:103C400016F4009407D057FD0DD00E94FC1D07FC10
:103C500009D07EF490958095709561957F4F8F4F38
:103C60009F4F089550954095309521953F4F4F4F68
:103C70005F4F0895A29FB001B39FC001A39F01D0E1
:103C8000B29F700D811D1124911D0895AA1BBB1BAD
:103C900051E107C0AA1FBB1FA617B70710F0A61B4C
:103CA000B70B881F991F5A95A9F780959095BC016D
:103CB000CD010895EE0FFF1F0590F491E02D0994BA
:103CC0000F931F93CF93DF938230910510F482E01E
:103CD00090E0E091DB02F091DC0220E030E0C0E017
:103CE000D0E023C04081518148175907A8F04817F8
:103CF000590761F482819381209719F09B838A830D
:103D00002EC09093DC028093DB0229C0211531057F
:103D100029F04217530710F0A90102C0BE01DF01CC
:103D200002811381EF019A01F8013097D9F621152C
:103D3000310509F1281B390B2430310590F4129616
:103D40008D919C9113976115710521F0FB0193836F
:103D5000828304C09093DC028093DB02FD013296E3
:103D600044C0FD01E20FF31F81939193225031096A
:103D70002D933C933AC02091D9023091DA02232B43
:103D800041F420910201309103013093DA02209333
:103D9000D90220910001309101012115310541F432
:103DA0002DB73EB74091040150910501241B350BFE
:103DB000E091D902F091DA02E217F307A0F42E1B8A
:103DC0003F0B2817390778F0AC014E5F5F4F24177F
:103DD000350748F04E0F5F1F5093DA024093D90227
:103DE0008193919302C0E0E0F0E0CF01DF91CF91A9
:103DF0001F910F910895EF92FF920F931F93CF930E
:103E0000DF93009709F48EC0DC01129713961C9281
:103E10001E921297E090DB02F090DC02E114F104B4
:103E200089F42D913C911197280F391F8091D90267
:103E30009091DA028217930789F5B093DA02A09382
:103E4000D90270C0E70120E030E001C0EA01CA17E2
:103E5000DB0738F44A815B819E0141155105B1F7BA
:103E600022C0AC0142505109FA01D383C2830081C0
:103E70001181BC01600F711F6C177D0761F46881AF
:103E80007981600F711F6E5F7F4F718360836A81DC
:103E90007B81738362832115310529F4B093DC02A1
:103EA000A093DB023FC0F901B383A283E9014991EA
:103EB0005991C40FD51FAC17BD0771F4DC019E9159
:103EC0008E91840F951F02969183808312968D9117
:103ED0009C91139793838283A0E0B0E002C0D70146
:103EE0007C01F701828193810097C9F7C70102968F
:103EF00020813181820F931F2091D9023091DA0203
:103F00002817390779F4109729F41092DC021092DF
:103F1000DB0204C013961C921E921297F092DA02F2
:103F2000E092D902CDB7DEB7E6E00C941C21A0E008
:103F3000B0E0EDE9FFE10C94FA20EC01009729F4E0
:103F4000CB010E94601EEC01B4C0DC01A60FB71FBC
:103F5000FC013297AE17BF0718F4C0E0D0E0A9C04B
:103F60000081118106171707B0F00530110508F41C
:103F7000A0C0C80104978617970708F49AC002509A
:103F80001109061B170B0D931D9371836083CD01DF
:103F90000E94FB1E8EC06B01C01AD10A7C01E00E8C
:103FA000F11EE091DB02F091DC0220E030E080E0E5
:103FB00090E048C0EE15FF05D1F580809180540156
:103FC00042E0A40EB11CAC14BD0488F17401EC18DD
:103FD000FD08670122E0C20ED11C9E01225031096A
:103FE00045E0C416D10478F04281538113965C9366
:103FF0004E9312971196FC92EE92F90171836083B1
:104000003A2F2B2F09C00E5F1F4F080D191DD90124
:104010000D931C9332812381009721F0FC013283A0
:10402000238347C03093DB022093DC0242C08081AF
:1040300091812817390708F49C0152814381CF01EF
:10404000E52FF42F309709F0B5CF8091D9029091E8
:10405000DA028E159F05F1F426173707D8F4809100
:10406000000190910101009741F48DB79EB7209116
:10407000040130910501821B930BA817B90708F0C2
:104080006CCFB093DA02A093D902FE01329771830C
:1040900060830FC0CB010E94601E7C01009709F471
:1040A0005CCFA801BE010E94A420CE010E94FB1E8D
:1040B000E701CE01CDB7DEB7ECE00C941621FC0190
:1040C00088279927E89421912032E9F3293010F0CC
:1040D0002E30C8F32B3241F02D3239F4689404C0ED
:1040E0000E94EC20820F911D219120532A30C0F3B1
:1040F0001EF4909581959F4F08951F93FC01992779
:104100008827BC01E89411911032E9F3193010F0BE
:104110001E30C8F31B3251F01D3249F4689406C0BA
:104120000E94D720610F711D811D911D11911053A7
:104130001A30B0F33EF490958095709561957F4F5D
:104140008F4F9F4F1F910895FB01DC0102C001902A
:104150000D9241505040D8F70895FC018191861787
:1041600021F08823D9F7992708953197CF01089531
:10417000FB01DC018D91019080190110D9F3990B9D
:104180000895FB01DC0101900D920020E1F70895F4
:10419000FB01DC014150504048F001900D9200209D
:1041A000C9F701C01D9241505040E0F70895592FC2
:1041B000482F372F262F660F771F881F991F660FEE
:1041C000771F881F991F620F731F841F951F660F2B
:1041D000771F881F991F08957AE0979F902D879FDA
:1041E000802D910D112408952F923F924F925F924E
:1041F0006F927F928F929F92AF92BF92CF92DF92F7
:10420000EF92FF920F931F93CF93DF93CDB7DEB75B
:10421000CA1BDB0B0FB6F894DEBF0FBECDBF0994EF
:104220002A88398848885F846E847D848C849B8446
:10423000AA84B984C884DF80EE80FD800C811B8154
:10424000AA81B981CE0FD11D0FB6F894DEBF0FBE83
:0A425000CDBFED010895F894FFCFF3
:10425A000000DD02200001FF76657273696F6E004F
:10426A004D53424649525354007373204F4B0064D6
:10427A007700647200617700617200706D0070737C
:10428A00007069007373007377007372007376614C
:10429A000073767200737677007376776D007376A3
:1042AA0064006E746F0063617000736F007369005D
:1042BA0000000000FD0E0D154A0EFD0D200E3B0EEE
:1042CA00000000008F180D152A1859183D187D187E
:00000001FF
